:020000040800F2
:10000000A809002065340008C9020008CB020008D6
:10001000DF020008E3020008E70200080000000019
:10002000000000000000000000000000EB020008DB
:10003000ED02000800000000EF020008F1020008D5
:100040007F3400087F3400087F3400087F340008C4
:100050007F3400087F3400087F3400087F340008B4
:100060007F3400087F3400087F3400087F340008A4
:100070007F3400087F3400087F3400087F34000894
:100080007F3400087F3400087F3400087F34000884
:10009000590F00087F3400087F3400087F340008BF
:1000A0007F3400087F3400087F3400087F34000864
:1000B0007F3400087F3400087F3400087F34000854
:1000C0007F3400087F3400087F3400087F34000844
:1000D0007F3400087F3400087F3400087F34000834
:1000E0007F3400087F3400087F340008DFF80CD02C
:1000F00003F0ECFA0048004785010008A809002039
:1001000001B502E00098401E009000980028F9D147
:1001100008BD00B585B04FF4E13001900020ADF886
:100120000800ADF80A00ADF80C00ADF810000C2086
:10013000ADF80E00012144F2040002F085F84FF4FE
:100140000070ADF8000018208DF8030003208DF832
:1001500002006946354802F03BF94FF48060ADF883
:10016000000004208DF803006946304802F030F9A1
:1001700001A92F4802F0BDFA01212D4802F045FBEC
:1001800005B000BD08B501F032FC00F0A7FB00216E
:10019000032000F0B9FBFFF7BCFF26A000F06EF9CA
:1001A0000020052306220721009000F053FE01F0F5
:1001B0001EFA2B4801782BA003F0E4FA34E028481B
:1001C0000078AA280ED12D4800F058F92C4800F0EC
:1001D00055F92A4800F052F92AA000F04FF900F032
:1001E00045FA21E02948006829490840B0F1005F3C
:1001F00013D128A000F042F9244840682B49086038
:10020000084600682A4908602049086880F3088881
:1002100000BF27480068804706E026A000F02EF9BE
:100220004FF6FF70FFF76CFFC9E770470008014009
:10023000003801400D0A0D0A59434B4A2D4B4A30F4
:10024000315F4941502056302E312E2E2E5374618D
:100250007274696E672055702E2E2E0D0A000000F4
:1002600065010020675F4941505F466C61673A3025
:1002700078253032583B0D0A00000000743E00081B
:10028000283E00080D0A0D0A00000000005000087A
:100290000000FE2F4578656375746520757365727F
:1002A0002050726F6772616D0D0A0A001C000020F9
:1002B000180000206E6F20757365722050726F6792
:1002C00072616D0D0A0A000070470AA000F0D6F8AE
:1002D00004E04FF470710B4802F029F9F9E700BF10
:1002E000FEE700BFFEE700BFFEE7704770477047BC
:1002F000704700004552524F522121212121200AEE
:100300000D000000000C0140F0B5FB4A0025002460
:10031000002320E0B1FBF2F6303606F0FF0C2E464B
:100320006D1C00F806C0B1FBF2F602FB16110A269E
:10033000B2FBF6F26E1E865D302E01D1012600E082
:1003400000260CB9012700E000273E400EB1002531
:1003500000E0641C5B1C0A2BDCD3F0BD70B50246C8
:100360000C460021002500231078302843D1507816
:10037000782802D0507858283DD1907808B90020CC
:1003800070BD022130E0505C10B9236001252DE0E2
:10039000505C412802DB505C46280BDD505C612834
:1003A00002DB505C662805DD505C302819DB505CB0
:1003B000392816DC505C302805DB505C392802DC1B
:1003C000505C30380AE0505C412805DB505C462820
:1003D00002DC505C373801E0505C573800EB031307
:1003E00001E0002502E0491C0B29CCD300BF0B29FA
:1003F00034D3002532E000212AE0505C10B923609C
:10040000012527E0505C6B2802D0505C4B2804D1BA
:1004100019B19B02236001251CE0505C6D2802D0BD
:10042000505C4D2804D119B11B052360012511E052
:10043000505C302809DB505C392806DC505C3038D1
:1004400003EB830600EB460301E0002502E0491CB4
:100450000B29D2D300BF0B2900D3002528468FE7F4
:1004600010B504462146A54802F03CFA00BF8021A1
:10047000A24802F0A5FA0028F9D010BD10B5044634
:1004800003E02078FFF7ECFF641C20780028F8D107
:1004900010BD10B504462021984802F091FA28B109
:1004A0009648001D00882070012010BD0020FCE748
:1004B00008B50020009004E06846FFF7EAFF00B1AD
:1004C00000E0F9E700BF9DF8000008BD70B50646E2
:1004D0000025002400BFFFF7EBFF04460D2C00D1E0
:1004E0001AE0082C05D11DB185A0FFF7C7FF6D1ECE
:1004F00011E0802D04D383A0FFF7C0FF00250AE0A0
:10050000202C07DB7E2C05DC28466D1C345420464D
:10051000FFF7A6FF00BFDEE700BF82A0FFF7AEFF38
:100520000020705570BD1FB5044623E06846FFF7F4
:10053000CDFF9DF8000000B91CE09DF80000612887
:1005400003D09DF80000412808D19DF8010028B98A
:1005500075A0FFF793FF002004B010BD2146684648
:10056000FFF7FCFE18B975A0FFF788FF01E0012036
:10057000F2E700BFDAE701B500200099C1F30902F4
:100580001AB1012202EB912000E0880A08BD2DE992
:10059000F04700240025012602274FF004084FF001
:1005A000010901F090FC05466A4800682840694945
:1005B0000968884255D001F082FC0446654800680D
:1005C00028436449086001F0DCFA8146614800680C
:1005D000401C28B15F480068C04301F092FB81468F
:1005E00004F00700072811D004F0010000B900262C
:1005F00004F0020000B9002704F0040008B94FF02D
:10060000000842463946304601F02DFCB9F1040F8E
:1006100023D151A0FFF732FF5748FFF72FFF00BF4C
:1006200000BF00BF00BF00BFBFF34F8F00BF00BFC0
:1006300000BF5248006800F4E06051490843001DC3
:100640004E49086000BF00BF00BFBFF34F8F00BF1F
:1006500000BF00BF00BF00BFFDE74AA0FFF70EFFCD
:1006600002E053A0FFF70AFFBDE8F0875948006891
:10067000A0F10060000B584908600846017801208D
:100680008840401EC0433349086001F01CFC3149DA
:10069000096808402F490968884201D0FFF777FFB1
:1006A00008E04E48007828B14D4800F042FD002097
:1006B0004A490870F5E710B54A4840684A49086059
:1006C00008460068494908604649086880F3088878
:1006D00000BF46480068804710BD014600BF704714
:1006E00000BF064A128802F04002002AF9D0C2B2C6
:1006F000024B1B1D1A80704700CA9A3B003801400C
:1007000008200800436F6D6D616E64207374726918
:100710006E672073697A65206F766572666C6F7795
:100720000D0A00000A0D0000557365722043616ECA
:1007300063656C6C6564200D0A0000004572726F81
:10074000722C20496E70757420616761696E3A2061
:100750000D0A000024000020577269746520507251
:100760006F74656374696F6E2064697361626C6530
:10077000642E2E2E0D0A0000C03E00080CED00E095
:100780000000FA054572726F723A20466C61736818
:1007900020777269746520756E70726F746563740A
:1007A000696F6E206661696C65642E2E2E0D0A00DD
:1007B000466C617368206D656D6F7279206E6F7421
:1007C0002077726974652070726F746563746564F4
:1007D0000D0A00000000002020000020480000203A
:1007E00090010020005000081C000020180000208C
:1007F00001B581B00BE06420009004E09DF800009A
:10080000401EC0B200909DF800000028F6DCBDF844
:100810000400411E89B201910028ECD10CBD70B5D5
:1008200004464FF48051FE4801F081FE002520E08F
:100830004FF40051FA4801F07AFE04F0010028B1AB
:100840004FF48041F64801F070FE04E04FF480411F
:10085000F34801F06CFE0120FFF7CAFF4FF400518E
:10086000EF4801F062FE64100120FFF7C1FF681C31
:10087000C5B2082DDCDB70BD10B54FF48051E848DF
:1008800001F053FE4FF40051E54801F04EFE4FF4E5
:100890008041E34801F049FE4020FFF7C0FF4FF4DC
:1008A0008051DF4801F041FEC020FFF7B8FF00246F
:1008B00004E00020FFF7B3FF601CC4B2102CF8DB8B
:1008C0004FF48051D64801F030FE8020FFF7A7FF9B
:1008D0004FF48051D24801F028FE10BD08B5012127
:1008E000082001F0B1FC4FF4E040ADF8000010200A
:1008F0008DF8030003208DF802006946C84801F016
:1009000067FDFFF7B9FF08BD2DE9F04106460D462A
:10091000C4480078B04203D1C3480068A8427DD0E3
:10092000C0480078B04201D0FFF7A6FFBD4806706E
:10093000BD4805604020FFF772FF4FF48051B84872
:1009400001F0F3FD022E0CD1C020FFF768FF002755
:1009500004E00020FFF763FF781CC7B2102FF8DB1C
:100960007FE1012E1BD1C020FFF759FF0F20FFF7B9
:1009700056FF0020FFF753FF002707E00920FFF78D
:100980004EFF0020FFF74BFF781CC7B2062FF5DBA8
:100990000920FFF744FF0320FFF741FF61E1032E29
:1009A0001BD1C020FFF73BFF0F20FFF738FF0020CF
:1009B000FFF735FF002707E00920FFF730FF04208D
:1009C000FFF72DFF781CC7B2062FF5DB0920FFF7D4
:1009D00026FF0320FFF723FF43E1042E71D1C0203F
:1009E000FFF71DFF25F07F45904885426BD20A2016
:1009F000B5FBF0F100FB11548D49085DFFF70FFFC7
:100A00008B49095D0811FFF70AFF0A20B5FBF0F0DA
:100A10000A21B0FBF1F201FB120400E02EE184494F
:100A2000085DFFF7FCFE8249095D0811FFF7F7FE3C
:100A30006420B5FBF0F00A21B0FBF1F201FB1204D7
:100A40007B49085DFFF7EBFE7949095D0811FFF767
:100A5000E6FE4FF47A70B5FBF0F00A21B0FBF1F23C
:100A600001FB12047249085DFFF7D9FE7049095D68
:100A7000082242EA2110FFF7D2FE42F21070B5FBC5
:100A8000F0F00A21B0FBF1F201FB12046849085DA5
:100A9000FFF7C5FE6649095D0811FFF7C0FE65480E
:100AA000B5FBF0F00A21B0FBF1F201FB1204604942
:100AB000085DFFF7B4FE5E49095D0811FFF7AFFE60
:100AC0006BE077E0FFE70A20B5FBF0F00A21B0FB0E
:100AD000F1F201FB12045649085DFFF7A0FE5449EC
:100AE000095D0811FFF79BFE6420B5FBF0F00A21B9
:100AF000B0FBF1F201FB12044D49085DFFF78FFED8
:100B00004B49095D0811FFF78AFE4FF47A70B5FB77
:100B1000F0F00A21B0FBF1F201FB12044449085D38
:100B2000FFF77DFE4249095D082242EA2110FFF7E6
:100B300076FE42F21070B5FBF0F00A21B0FBF1F244
:100B400001FB12043A49085DFFF769FE3849095D67
:100B50000811FFF764FE3748B5FBF0F00A21B0FB3F
:100B6000F1F201FB12043249085DFFF758FE3049EB
:100B7000095D0811FFF753FE2C48B5FBF0F00A2180
:100B8000B0FBF1F201FB12042949085DFFF747FEB3
:100B90002749095D0811FFF742FE0020FFF73FFEDD
:100BA0000020FFF73CFE0020FFF739FE0020FFF792
:100BB00036FE56E0052E54D1C020FFF730FE00244B
:100BC0002046FFF72CFE2046FFF729FE00BF2046F7
:100BD000FFF725FE2046FFF722FE00BF1449085DFF
:100BE000FFF71DFE1249095D0811FFF718FE00BF4F
:100BF0000F49085DFFF713FE0D49095D0811FFF766
:100C00000EFE00BF0A49085DFFF709FE0849095DAD
:100C10000811FFF704FE0E240549085D0CE00000F2
:100C2000000C0140300000203400002040420F0042
:100C300038000020A0860100FFF7F1FD8249095D20
:100C40000811FFF7ECFD00242046FFF7E8FD2046E1
:100C5000FFF7E5FD00BF2046FFF7E1FD2046FFF767
:100C6000DEFD4FF48051794801F05FFC8A20FFF7E8
:100C7000D6FD4FF48051754801F057FCBDE8F08176
:100C800070B506460D4672480078B04201D0FFF7B5
:100C9000F3FD4020FFF7C3FD4FF480516B4801F096
:100CA00044FC112E5FD1C020FFF7B9FDE87800F0B9
:100CB0000F046549085DFFF7B2FD6349095D08113E
:100CC000FFF7ADFDE87804095F49085DFFF7A7FD70
:100CD0005D49095D0811FFF7A2FDA87800F00F0437
:100CE0005949085DFFF79BFD5749095D0811FFF75A
:100CF00096FDA87804095449085DFFF790FD524914
:100D0000095D0811FFF78BFD687800F00F044E496C
:100D1000085DFFF784FD4C49095D0811FFF77FFD71
:100D2000687804094849085DFFF779FD4649095D7F
:100D30000811FFF774FD287800F00F044249085DA0
:100D4000FFF76DFD4049095D0811FFF768FD287840
:100D500004093D49085DFFF762FD3B49095D081143
:100D6000FFF75DFD00E000BF4FF48051374801F010
:100D7000DCFB8A20FFF753FD4FF48051334801F02C
:100D8000D4FB3348067070BD10B54FF480512F4826
:100D900001F0CBFB4020FFF742FD4FF480512B4880
:100DA00001F0C3FB0020FFF73AFD27494878FFF721
:100DB00036FD254949780811FFF731FD022404E08A
:100DC0000020FFF72CFD601CC4B2102CF8DB4FF4A0
:100DD00080511E4801F0A9FB8A20FFF720FD4FF447
:100DE00080511A4801F0A1FB10BD70B505460C46B4
:100DF0004FF48051154801F098FB4020FFF70FFD9C
:100E00004FF48051114801F090FB6906080EFFF77E
:100E100006FD0D49085DFFF702FD0B49095D08114C
:100E2000FFF7FDFC4FF48051084801F07EFB8A205B
:100E3000FFF7F5FC4FF48051044801F076FB0520E4
:100E4000FFF7D6FC70BD000038000020000C014008
:100E5000300000202DE9F04389B004460D461646C7
:100E60001F46DDF840804FF4A06900BF0121042037
:100E700001F0EAF90121480601F0F3F94FF480503E
:100E8000ADF8200003208DF8220018208DF82300F3
:100E900008A9EF4801F09CFA4FF40060ADF820007B
:100EA00048208DF8230008A9E94801F091FA0020B4
:100EB0008DF81A008DF81B008DF81C0001208DF8AC
:100EC0001D0000208DF81E008DF81F008DF8168083
:100ED0008DF817408DF818608DF81950ADF8147022
:100EE00005A9DC4801F0DFFD00208DF80E008DF82B
:100EF0000F0001208DF810004FF6FF7000EA491036
:100F0000ADF804000020ADF806004FF42040ADF825
:100F100008000020ADF80A00ADF80C0001208DF8A3
:100F2000110001A801F049FE01220221C94802F086
:100F300043F914208DF8000001208DF801000020F5
:100F40008DF8020001208DF80300684600F0C7FC10
:100F5000002009B0BDE8F08310B5BF4A0021BD48AC
:100F600002F00FF80221BB4802F029FA0120BB4928
:100F7000087010BDF0B585B005460F4600242878EE
:100F8000B32802D02878C22803D14FF40070009013
:100F900003E0687840F400700090B14801900020B0
:100FA0008DF808008DF809008DF80A70002405E01E
:100FB000295D0DF10B000155601C84B2082CF7DB94
:100FC0006946A44801F0E8FE0646002401E0601CE2
:100FD00084B231469F4801F077FF18B940F6FF70A0
:100FE0008442F4DB40F6FF70844202DB012005B04E
:100FF000F0BD0020FBE730B585B0054600219548DF
:1010000002F042F810B9002005B030BD6A46002158
:10101000904801F0B6FF002404E00DF10B00005DE4
:101020002855641C082CF8D39DF80A00ECE77CB521
:1010300005460C46002000900190DDB9B3208DF8E4
:10104000000060788DF80100A0788DF80200E0784B
:101050008DF8030020798DF8040060798DF8050083
:10106000A0798DF80600E0798DF807000821684620
:10107000FFF780FF7CBD70B504460025214675480A
:1010800001F08AFE064605E06D1C7648854201D9CE
:10109000012070BD31466F4801F016FF0128F3D1E1
:1010A0000020F6E74FF4A06070472DE9F0410446B8
:1010B0000D4617464FF004086B48844202D20220C6
:1010C000BDE8F081342000F02DFF00260DE0204621
:1010D000296800F0A1FD8046B8F1040F02D1241D5B
:1010E0002D1D01E04046EBE7761CB6EB970FEED3E3
:1010F0004046E5E72DE9F04105460E46042700F09D
:1011000076FC342000F00EFF2C460CE0204600F068
:10111000B3FC0746042F04D000F075FC3846BDE848
:10112000F08104F58064B442F0D900F06CFC3846DC
:10113000F5E72DE9F0438BB00446207800F00F0866
:10114000002007908DF820008DF821008DF82200F6
:10115000B8F1010F09D0B8F1020F77D0B8F1040F40
:1011600050D0B8F10A0F72D17CE140A0FFF786F9A8
:10117000012000F082F900F03AFCA07C617C227C26
:10118000E37BCDE90132CDE90310A07B0090637BC6
:10119000227BE17A3BA002F0F5FAE27B1306227C87
:1011A00043EA0243627C43EA0222A37C42EA03014F
:1011B000E27A1306227B43EA0243627B43EA02227D
:1011C000A37B42EA0300FFF795FF064600F01BFCF5
:1011D000002000F052F9042E05D1FFF763FF40F024
:1011E0000100069004E0FFF75DFF40F00800069064
:1011F00000208DF8220006A8FFF73DFF31A002F085
:10120000C1FA36E134A002F0BDFAE07A0106207B93
:1012100041EA0041607B41EA0020A17B0843354957
:101220000860E07B0106207C41EA0041607C41EAE5
:101230000020A17C08433049086008460168A07B73
:10124000CDE90001637B227BE17A57E068E00FE1A2
:101250000008014000640040900100204800002088
:1012600001F000188096980000500008434D445F3C
:101270004C6973745F4572617365466C6173682C69
:101280002000000053746172745F616464723A30CC
:1012900078253032582530325825303258253032B2
:1012A000583B2020416E645F616464723A30782557
:1012B0003032582530325825303258253032583B9C
:1012C000202000004572617365466C617368204F91
:1012D0007665723B0D0A0000434D445F4C697374A0
:1012E0005F426C6F636B5772697465496E666F2CF1
:1012F000200000004C0000205000002060A002F000
:1013000041FA00206B490860FFF7CCFE40F0040072
:10131000069000208DF8220006A8FFF7ACFEA8E09A
:101320006448016864A002F02DFA624800686B49C5
:101330000968884227D25F48006840F2024188422B
:1013400021D2012000F099F8002512E004F10B00F1
:10135000415D584802680068401C564B1860604860
:10136000815404F10B00415D5EA002F00BFA681C91
:10137000C5B2A07AA842E9DCAFF2A80002F002FAF6
:10138000002000F07AF84B48006854490968884208
:1013900005D24848006840F20241884261D353A018
:1013A00002F0F0F94E494D480068821E00200023EB
:1013B0000EE011F8019B89EA202C0CF0FF0CDFF8FD
:1013C0005C9139F81CC08CEA002C1FFA8CF05B1C75
:1013D0009342EED3074641480068401E4049095CED
:1013E0003E480068801E3E4A105C41EA0021B94236
:1013F0002CD1012000F041F800F0F9FA2D480068E6
:10140000821E374946480068FFF74FFE064645A052
:1014100002F0B8F900F0F7FA002000F02EF8042EE0
:1014200008D1FFF73FFE40F00200069043A002F013
:10143000A9F904E0FFF736FE40F00800069000200E
:101440008DF8220006A8FFF716FE0AE0FFF72AFE35
:1014500040F00800069000208DF8220006A8FFF753
:101460000AFE06E03CA0FFF709F8FFF724F900E0C8
:1014700000BF00BF0BB0BDE8F08380F31088704759
:1014800053746172745F616464723A3078253032EB
:10149000582530325825303258253032583B2020DC
:1014A000446174615F73697A653A2534643B202036
:1014B0000000000054000020434D445F4C697374E9
:1014C0005F5772697465426C6F636B466C617368D9
:1014D0002C202534643B203E3E00000050000020BC
:1014E000A4010020202530325800000028646174D7
:1014F000615F696E6465783E3D646174615F7369C4
:101500007A65297C7C28646174615F696E646578A2
:101510003E3D31303236293B0D0A0000263C0008A2
:101520004C00002050726F6772616D446174617489
:101530006F466C6173682E0D0A00000050726F6771
:1015400072616D44617461746F466C617368204FA1
:101550007665722E0D0A0000434D445F4C6973742A
:101560005F4578637574654170700D0A0000000076
:1015700010B50246002006E013784340034CE05CBF
:10158000521C4B1ED9B20029F6DC10BD58000020B9
:101590000146088870472DE9F04105460E4617467A
:1015A00000F025FA352000F0BDFCC44800F064FAD4
:1015B000002406E0315D284600F061FBAD1C601C94
:1015C00084B2BC42F6DB00F01EFABDE8F08130B513
:1015D00003460C461546002206E01846FFF7D8FFE2
:1015E000A0549B1C501C82B2AA42F6DB30BD1FB532
:1015F0000020009001900290039010226946AF48AD
:10160000FFF7E5FF9DF8000000287CD09DF8000062
:10161000FF2878D09DF80100002874D09DF80100C3
:10162000FF2870D09DF80000A54908709DF80100C2
:1016300048709DF8020088709DF80300C8700B2167
:1016400001A8FFF795FF9DF80F10884226D19DF85D
:101650000400AA2822D19DF805009A4908709DF837
:10166000060048709DF8070088709DF80800C87053
:101670009DF8090008719DF80A0048719DF80B005B
:1016800088719DF80C00904908709DF80D008F49F5
:1016900008709DF80E008E49087079E0894800783E
:1016A0008DF80500874840788DF8060085488078D9
:1016B0008DF807008348C0788DF8080081480079CC
:1016C0008DF809007F4840798DF80A007D488079BF
:1016D0008DF80B007C4800788DF80C007B48007872
:1016E0008DF80D007A4800788DF80E000B2101A8C6
:1016F000FFF73EFF8DF80F00102269466F48FFF795
:101700004AFF45E0FFE76E4800788DF800006C481E
:1017100040788DF801006A4880788DF802006848AA
:10172000C0788DF80300AA208DF804006548007881
:101730008DF80500634840788DF806006148807890
:101740008DF807005F48C0788DF808005D48007983
:101750008DF809005B4840798DF80A005948807976
:101760008DF80B00584800788DF80C005748007829
:101770008DF80D0000208DF80E000B2101A8FFF759
:10178000F7FE8DF80F00102269464C48FFF703FF63
:101790001FBD00B589B00020059006900790089005
:1017A0000190029003900490102205A94348FFF78E
:1017B0000EFF434800788DF80400414840788DF8CA
:1017C00005003F4880788DF806003D48C0788DF8C8
:1017D0000700AA208DF808003A4800788DF8090023
:1017E000384840788DF80A00364880788DF80B002C
:1017F0003448C0788DF80C00324800798DF80D001F
:10180000304840798DF80E002E4880798DF80F0011
:101810002D4800788DF810002C4800788DF81100C4
:101820002B4800788DF812000B2102A8FFF7A0FECC
:101830008DF813009DF813009DF82310884235D1D0
:101840009DF811009DF8211088422FD19DF81000BD
:101850009DF82010884229D19DF80F009DF81F1097
:10186000884223D19DF80E009DF81E1088421DD19C
:101870009DF80D009DF81D10884217D19DF80C00B1
:101880009DF81C10884211D19DF80B009DF81B108B
:1018900088420BD19DF80A009DF81A10884205D1A4
:1018A0009DF809009DF81910884204D0102201A962
:1018B0000248FFF770FE09B000BD000000FC000800
:1018C000580100205C010020630100206401002019
:1018D0006501002031490143314A1160704770B5FC
:1018E000002100230F22C47804B32D4C246804F493
:1018F000E064C4F5E064210AC1F10403CA404478FD
:1019000004FA03F18478144021430901254C067838
:10191000A155047804F01F050124AC4005786D1131
:10192000AD0005F1E025C5F8004109E0047804F0B8
:101930001F050124AC401C4D0678761145F8264061
:1019400070BD1A4A0A400243154B1B1F1A607047AC
:1019500039B1134A121D12680243114B1B1D1A6044
:1019600006E00F4A121D126882430D4B1B1D1A60C0
:101970007047042808D14FF0E021096941F00401C3
:101980004FF0E022116107E04FF0E021096921F0FA
:1019900004014FF0E0221161704700000000FA05D9
:1019A0000CED00E000E400E080E100E080FFFF1FBC
:1019B00001460020FE4A106800F03800084310601D
:1019C0007047FB49096821F00801F94A1160114686
:1019D0000968014311607047F549096821F0100159
:1019E000F34A116011460968014311607047F148DC
:1019F000EF494860F04848607047EE48EC4948605D
:101A0000ED4848607047EA48006940F08000E849C6
:101A100008617047E648006940F08000E4490861C9
:101A200070470420E249C96801F0010109B10120B1
:101A30000EE0DF49C96801F0040109B1022007E0A6
:101A4000DB49C96801F0100109B1032000E004205E
:101A5000704700B502460423FFF7E3FF034603E0A7
:101A6000FFF7DFFF0346521E012B01D1002AF7D1F9
:101A700002B90523184600BD30B5044604254FF4CD
:101A80003020FFF7E6FF0546042D17D1C84800694E
:101A900040F00200C649086108464461006940F010
:101AA000400008614FF43020FFF7D3FF0546C048DF
:101AB000006941F6FD710840BD490861284630BD06
:101AC00010B504244FF43020FFF7C3FF0446042C64
:101AD00016D1B748006940F00400B54908610846CE
:101AE000006940F0400008614FF43020FFF7B1FF7B
:101AF0000446AF48006941F6FB710840AC490861F3
:101B0000204610BD00B502460423FFF78AFF0346B6
:101B100003E0FFF786FF0346521E012B01D1002A86
:101B2000F7D102B90523184600BD10B504244FF4BF
:101B30003020FFF7E7FF0446042C16D19C480069CB
:101B400040F004009A4908610846006940F04000EE
:101B500008614FF43020FFF7D5FF04469448006930
:101B600041F6FB71084092490861204610BD0020F3
:101B70008F49C96901F0020109B1012000E000208C
:101B8000704730B5A5250424FFF7F1FF00B100250B
:101B90004FF43020FFF75DFF0446042C3AD185480E
:101BA00083498860844888600846006940F02000C6
:101BB00008610846006940F0400008614FF4302099
:101BC000FFF747FF0446042C1BD17948006941F612
:101BD000DF710840764908610846006940F010004E
:101BE000086176480580E002FFF733FF0446052CC4
:101BF00010D06F48006941F6EF7108406C490861E8
:101C000008E0052C06D06A48006941F6EF710840EB
:101C100067490861204630BD78B506460C46042564
:101C200000200090E802FFF714FF0546042D24D1A0
:101C30005F48006940F001005D4908613480E802B6
:101C4000FFF707FF0546042D10D1B01C0090200CB3
:101C500000990880E802FFF7FCFE05465448006939
:101C600041F6FE7108405249086106E0504800699B
:101C700041F6FE7108404E490861284678BD70B5AE
:101C800004460D460426F002FFF7E3FE0646042E46
:101C900011D14748006940F001004549086125809D
:101CA000F002FFF7D6FE06464148006941F6FE7194
:101CB00008403F490861304670BD70B505460E4684
:101CC0000424E002FFF7C5FE0446042C17D139486E
:101CD00037498860384888600846006940F010003D
:101CE00008612E80E002FFF7B4FE0446052C06D002
:101CF0002F48006941F6EF7108402D4908612046E0
:101D000070BD2DE9F04304464FF6FF763746B046E6
:101D1000B1460425E443E6B2C4F30727C4F30748F9
:101D20004FEA1469E802FFF794FE0546042D49D1F5
:101D300020481F498860204888600846006940F0B4
:101D400010000861FF2E06D01C4808300680E8020B
:101D5000FFF77FFE0546042D08D1FF2F06D0174858
:101D60000A300780E802FFF774FE0546042D0AD109
:101D7000B8F1FF0F07D011480C30A0F80080E8023E
:101D8000FFF767FE0546042D0AD1B9F1FF0F07D012
:101D90000A480E30A0F80090E802FFF75AFE054608
:101DA000052D0FD00248006941F6EF71084007E0A9
:101DB0000020024023016745AB89EFCD00F8FF1FEB
:101DC000664908612846BDE8F08330B5054604241D
:101DD0004FF43020FFF73DFE0446042C41D160480B
:101DE0005E4988605F4888600846006940F02000CE
:101DF00008610846006940F0400008614FF4302057
:101E0000FFF727FE0446042C22D15448006941F60E
:101E1000DF710840514908610846006940F0100030
:101E200008611DB100205049088002E0A5204E49FC
:101E300008804FF43020FFF70CFE0446052C10D02C
:101E40004648006941F6EF7108404449086108E0DE
:101E5000052C06D04148006941F6DF7108403F4932
:101E60000861204630BDF0B505460E4617460424ED
:101E70003B483A4988603B488860E002FFF7E9FD4B
:101E80000446042C19D13548006940F0100033494C
:101E9000086147F0F800304328433349891C088023
:101EA000E002FFF7D6FD0446052C06D02B4800695A
:101EB00041F6EF710840294908612046F0BD2748E6
:101EC000C069800870472548006A70470020234990
:101ED000096801F0200109B1012000E000207047ED
:101EE00029B11E4A126902431C4B1A6104E01B4AC5
:101EF00012698243194B1A6170470146002001297B
:101F000008D1164AD26902F001020AB1012008E0A4
:101F1000002006E0114AD2680A400AB1012000E020
:101F2000002070470D49C860704704200B49C968FC
:101F300001F0010109B101200EE00849C96801F072
:101F4000040109B1022007E00449C96801F0100149
:101F500009B1032000E00420704700000020024087
:101F600023016745AB89EFCD00F8FF1FDF4800680C
:101F700040F00100DD49086008464068DC4908403F
:101F8000DA49486008460068DA490840D7490860DD
:101F90000846006820F4802008600846406820F465
:101FA000FE0048604FF41F0088607047CF49096801
:101FB00021F48031CD4A11601146096821F4802155
:101FC0001160B0F5803F03D0B0F5802F0ED106E050
:101FD000C649096841F48031C44A116007E0C34929
:101FE000096841F4A021C14A116000E000BF00BFB0
:101FF000704710B501460022002300204A11012A33
:1020000002D1BA4C236806E0022A02D1B74C236AF7
:1020100001E0B64C636A01F01F02012494401C40A9
:102020000CB1012000E0002010BD38B50020009068
:102030000024002500BF3120FFF7DBFF0546009894
:10204000401C00900098B0F5A06F01D0002DF2D098
:102050003120FFF7CEFF08B1012400E00024204624
:1020600038BD01460020A14A106820F0F80040EA7F
:10207000C10010607047A049086070470246002008
:102080009A4B586820F47C1042EA01031843974B9E
:102090005860704798490866704701460020934A87
:1020A000506820F003000843506070478F48406834
:1020B00000F00C007047014600208C4A506820F068
:1020C000F00008435060704701460020874A50687E
:1020D00020F4E06008435060704701460020834AC6
:1020E000506820F4605040EAC1005060704729B148
:1020F0007E4A527A02437D4B5A7204E07B4A527AFE
:1021000082437A4B5A7270477B49D83108607047D6
:1021100001460020754A506820F440400843506052
:1021200070470021714A20321170704A82F82010E5
:10213000012802D004280AD104E001216B4A203290
:10214000117005E00521694A2032117000E000BFDE
:1021500000BF70476949086070476449096A0143D4
:10216000624A11627047654944390860704730B56A
:1021700000210022002400235C4D6D6805F00C0155
:1021800021B1042905D0082923D105E05C4D056063
:1021900022E05B4D05601FE0544D6D6805F4701240
:1021A000524D6D6805F48034022505EB92421CB94E
:1021B000544D554305600BE04C4D6D6805F40035FA
:1021C0001DB1504D5543056002E04D4D554305602E
:1021D00002E04B4D056000BF00BF444D6D6805F047
:1021E000F0010909484D6B5C0568DD4045603F4DD5
:1021F0006D6805F4E061090A434D6B5C4568DD409C
:1022000085603A4D6D6805F46051C90A3E4D6B5CBE
:102210004568DD40C560354D6D6805F44041890B6A
:102220003A4D6B5CC568B5FBF3F5056130BD29B16E
:102230002E4A526902432D4B5A6104E02B4A5269DF
:1022400082432A4B5A61704729B1284A9269024356
:10225000264B9A6104E0254A92698243234B9A6196
:10226000704729B1214AD2690243204BDA6104E068
:102270001E4AD26982431D4BDA61704729B11B4A5D
:10228000D2680243194BDA6004E0184AD2688243EC
:10229000164BDA60704729B1144A12690243134B96
:1022A0001A6104E0114A12698243104B1A617047A7
:1022B00012494039086070470F49C86470470B499C
:1022C000C87170470948406A40F080700749486209
:1022D000704701460020054A92680A400AB1012071
:1022E00000E00020704701498872704700100240EA
:1022F0000000FFF8FFFFF6FE000042428004424269
:1023000000127A0000093D006601002076010020DD
:1023100010B50446CC48844208D101210420FFF7BF
:10232000ADFF00210420FFF7A9FF46E0C748844223
:1023300008D101210820FFF7A1FF00210820FFF7A5
:102340009DFF3AE0C248844208D101211020FFF7E6
:1023500095FF00211020FFF791FF2EE0BD48844239
:1023600008D101212020FFF789FF00212020FFF75D
:1023700085FF22E0B848844208D101214020FFF7C0
:102380007DFF00214020FFF779FF16E0B34884422B
:1023900008D101218020FFF771FF00218020FFF785
:1023A0006DFF0AE0AE48844207D101218015FFF796
:1023B00065FF0021A015FFF761FF10BD10B50121D9
:1023C0000846FFF75BFF00210120FFF757FF10BD14
:1023D0002DE9F041024600250026002000230024BC
:1023E000002791F803C00CF00F0591F803C00CF022
:1023F000100CBCF1000F03D091F802C04CEA0505A7
:1024000091F800C0BCF1000F31D0146800202BE01F
:102410004FF0010C0CFA00F3B1F800C00CEA03060F
:102420009E4220D183004FF00F0C0CFA03F7BC43FF
:1024300005FA03FC4CEA040491F803C0BCF1280F30
:1024400006D14FF0010C0CFA00FCC2F814C00AE0EF
:1024500091F803C0BCF1480F05D14FF0010C0CFA04
:1024600000FCC2F810C0401C0828D1D31460B1F899
:1024700000C0BCF1FF0F34DD546800202EE000F1F5
:10248000080C4FF0010808FA0CF3B1F800C00CEA90
:1024900003069E4221D183004FF00F0C0CFA03F784
:1024A000BC4305FA03FC4CEA040491F803C0BCF1F8
:1024B000280F05D100F1080C08FA0CF8C2F81480B6
:1024C00091F803C0BCF1480F07D100F1080C4FF0A0
:1024D000010808FA0CF8C2F81080401C0828CED376
:1024E0005460BDE8F0814FF6FF71018002218170D8
:1024F0000421C17070470246002093680B400BB165
:10250000012000E0002070470146886880B27047D3
:1025100002460020D3680B400BB1012000E00020F0
:1025200070470146C86880B27047016170474161D9
:1025300070470AB1016100E041617047C1607047B6
:102540004FF480320A4382618161826182698269CB
:10255000704702460020434B18684FF680731840BE
:1025600040EA021008433F4B186070473E49C8617B
:102570007047F0B50A46002300240021002500F032
:102580000046B6F1004F02D1364EF16901E0354EFA
:102590007168C0F3034583B200F44016B6F5401FDE
:1025A00008D121F070612F4E766826F070662D4FAD
:1025B0007E6012E000F48016B6F5801F06D1032677
:1025C00006FA05F4A14341F0706106E0460D3601BC
:1025D00003FA06F6B14341F0706122B1460D3601AF
:1025E00003FA06F6314300F00046B6F1004F02D17F
:1025F0001C4EF16101E01B4E7160F0BD30B5002250
:102600008B071C0F0F2303FA04F2164B08338C10B0
:1026100053F824309343134C08348D1044F825307C
:1026200023468C1053F824308C07240F00FA04F44E
:1026300023430C4C08348D1044F8253030BD0A4932
:10264000DC3108607047000000080140000C0140C8
:10265000001001400014014000180140001C01401E
:1026600000200140000001400000204210B5044657
:10267000FB48844209D101218803FFF7FFFD0021B7
:102680004FF48040FFF7FAFD32E0F648844209D16A
:1026900001214804FFF7FFFD00214FF40030FFF750
:1026A000FAFD25E0F048844209D101218804FFF7B2
:1026B000F2FD00214FF48020FFF7EDFD18E0EB481C
:1026C000844209D10121C804FFF7E5FD00214FF440
:1026D0000020FFF7E0FD0BE0E548844208D101212E
:1026E0000805FFF7D8FD00214FF48010FFF7D3FD58
:1026F00010BD2DE9F04786B005460E460024A246DF
:1027000000BFA1460027B08900B100BF2F462C8A28
:102710004CF6FF700440F08804432C82AC894EF6DE
:10272000F3100440B0883189084371890843044399
:10273000AC81AC8A4FF6FF400440B0890443AC82C0
:1027400001A8FFF714FDC648874202D1DDF810A0AA
:1027500001E0DDF80CA0A88900F4004040B10AEBCC
:10276000CA0000EB0A1031684900B0FBF1F807E03D
:102770000AEBCA0000EB0A1031688900B0FBF1F8DF
:102780006420B8FBF0F004012009642101FB1089EA
:10279000A88900F4004040B1322000EBC900B0FB32
:1027A000F1F000F00700044308E0322000EB0910CC
:1027B0006421B0FBF1F000F00F0004432C8106B05F
:1027C000BDE8F0874FF41651016000218180C1807F
:1027D00001810C21418100218181704710B50246A1
:1027E0000020108A4FF2FF0318400B884C882343C7
:1027F0008C882343CC8823431843108210BD0021CA
:10280000018041808180C180704721B1828942F47A
:102810000052828104E082894DF6FF731A40828162
:102820007047F0B50346002400260025002040F63E
:102830006A17B94200D100BF1846C1F3421401F033
:102840001F06012707FA06F5012C01D10C3004E020
:10285000022C01D1103000E014301AB107682F4368
:10286000076002E00768AF430760F0BD1AB1838AD2
:102870000B43838202E0838A8B4383827047028A00
:102880004FF6F0731A400282028A0A4302827047AE
:1028900082894FF2FF731A40828182890A438281C2
:1028A000704721B1828942F00202828104E082896C
:1028B0004FF6FD731A4082817047028A4FF6DF732C
:1028C0001A400282028A0A430282704721B1028AB8
:1028D00042F48042028204E0028A4BF6FF731A40FF
:1028E00002827047C1F308028280704701468888DF
:1028F000C0F308007047818941F001018181704770
:10290000028BD2B20283028B42EA01220283704719
:10291000028B02F47F420283028B0A4302837047D8
:1029200021B1828A42F02002828204E0828A4FF63C
:10293000DF731A408282704721B1828A42F010020E
:10294000828204E0828A4FF6EF731A4082827047D7
:1029500021B1828A42F00802828204E0828A4FF624
:10296000F7731A408282704721B1828942F4004293
:10297000828103E08289C2F30E028281704721B115
:10298000828A42F40062828204E0828A4FF2FF73FC
:102990001A4082827047828A4FF6FB731A40828205
:1029A000828A0A438282704721B1828A42F00202FF
:1029B000828204E0828A4FF6FD731A408282704759
:1029C00002460020B1F5007F00D100BF13880B4004
:1029D0000BB1012000E00020704701F40072B2F555
:1029E000007F00D100BFCA430280704770B5024625
:1029F000002400230025002040F66A16B14200D1D1
:102A000000BFC1F3421501F01F03012606FA03F3CC
:102A1000012D02D19689334006E0022D02D1168A9B
:102A2000334001E0968A33400C12012606FA04F482
:102A30001688344013B10CB1012000E0002070BDB5
:102A400010B50022002340F66A14A14200D100BF55
:102A50000A1201249440A3B2DC43048010BD00009C
:102A6000003801400044004000480040004C004055
:102A70000050004010B50446FE48844209D10121AF
:102A80004806FFF708FC00214FF00070FFF703FC39
:102A900008E001218806FFF7FEFB00214FF080606F
:102AA000FFF7F9FB10BD30B5024600200023146883
:102AB00024F002041460146844F00104146000E07F
:102AC0005B1C546804F001041CB94FF6FF74A34268
:102AD000F6D1546804F001040CB900206CE08C7944
:102AE000012C04D1146844F08004146003E01468DD
:102AF00024F080041460CC79012C04D1146844F0D3
:102B00004004146003E0146824F0400414600C7A5C
:102B1000012C04D1146844F02004146003E014680C
:102B200024F0200414604C7A012C04D1146844F081
:102B30001004146003E0146824F0100414608C7A0C
:102B4000012C04D1146844F00804146003E01468F4
:102B500024F008041460CC7A012C04D1146844F0E9
:102B60000404146003E0146824F0040414608C78F6
:102B7000A407CD7844EA05640D7944EA05444D790B
:102B800044EA05540D886D1E2C43D461146824F06A
:102B900001041460002300E05B1C546804F001048D
:102BA0001CB14FF6FF74A342F6D1546804F001043F
:102BB0000CB1002000E0012030BD10B50021837A67
:102BC000012202FA03F1AC4A126842F00102AA4B58
:102BD0001A60A94A1C3212688A43A74B1C331A6038
:102BE000027BCAB9A44A0C3212688A43A24B0C3346
:102BF0001A604288C38842EA03439F4A4032847A7B
:102C000042F834300288838842EA03439A4A4032C9
:102C1000847A02EBC4025360027B012A19D1964ADE
:102C20000C3212680A43944B0C331A6042880388B2
:102C300042EA0343904A4032847A42F83430C288F0
:102C4000838842EA03438C4A4032847A02EBC4020E
:102C50005360C27A3AB9884A121D12688A43864B79
:102C60001B1D1A6006E0844A121D12680A43824B3B
:102C70001B1D1A60028932B97F4A143212688A43D6
:102C80007D4B14331A600289012A06D17A4A143224
:102C900012680A43784B14331A60427B012A06D12A
:102CA000754A1C3212680A43734B1C331A60724A0D
:102CB000126822F00102704B1A6010BD0021817170
:102CC000C171017241728172C1728170C170032140
:102CD0000171022141710121018070476649096833
:102CE00041F00101644A11601146096843F60E7211
:102CF0009143614A11601146096841EA002111605F
:102D00001146096821F001011160704721B1026884
:102D100042F48032026003E0026822F480320260F2
:102D20007047E1B1026842F0800202604FF4C27263
:102D3000125842F480734FF4C27213504FF4CA72A7
:102D4000125842F480734FF4CA7213504FF4D27287
:102D5000125842F480734FF4D27213501BE0026891
:102D600022F0800202604FF4C272125822F4807383
:102D70004FF4C27213504FF4CA72125822F4807387
:102D80004FF4CA7213504FF4D272125822F4807367
:102D90004FF4D2721350704710B50246002093686A
:102DA00003F08063B3F1806F00D110E0936803F00B
:102DB0000063B3F1006F01D1012008E0936803F0D4
:102DC0008053B3F1805F01D1022000E00420042889
:102DD00079D002F5C07303EB00131B6803F0010404
:102DE00002F5C07303EB00131C600B7A7BB94B7ABE
:102DF0000C8843EA445302F5C07404EB00142468C1
:102E0000234302F5C07404EB0014236010E00B7A36
:102E10004C6843EAC4034C7A234302F5C07404EBC4
:102E200000142468234302F5C07404EB00142360EB
:102E30008B7A03F00F038B7202F5C07303EB001360
:102E40005B6823F00F0402F5C07303EB00135C60B2
:102E500002F5C07303EB00135B688C7A234302F521
:102E6000C07404EB001463608B7B1C064B7B44EA4C
:102E7000034403E000640040006600400B7B44EA2A
:102E80000323CC7A234302F5C07404EB0014A3603F
:102E90008B7C1C064B7C44EA03440B7C44EA0323F2
:102EA000CC7B234302F5C07404EB0014E36002F50D
:102EB000C07303EB00131B6843F0010402F5C073F9
:102EC00003EB00131C6010BD10B50246002321B1B6
:102ED000012907D002290FD109E09068F94C00EAD6
:102EE00004030BE09068F84C00EA040306E09068E5
:102EF000F64C00EA040301E0002300BF00BFF44CDD
:102F0000181BA34216D007DC83B16FF08060184411
:102F100070B1022818D111E0B0F5007F10D0ED4C4F
:102F2000204448B1B0F5003F0ED10BE002230DE084
:102F300000230BE0002309E0002307E0012305E064
:102F4000012303E0012301E0002300BF00BFD8B24A
:102F500010BD21B1012907D002290FD109E08268F3
:102F600042F0800282600AE0826842F4004282609D
:102F700005E0826842F40002826000E000BF00BF0A
:102F8000704710B500F5D87303EB01131B6803F00D
:102F900004031372137A53B900F5D87303EB0113CA
:102FA0001B6840F2FF7404EA5353136009E000F514
:102FB000D87303EB01131B686FF0604404EAD3037A
:102FC000536000F5D87303EB01131B6803F0020391
:102FD000537200F5D87303EB01135B6803F00F0322
:102FE000937200F5D87303EB01135B681B0AD3746B
:102FF00000F5D87303EB01139B68D37200F5D87307
:1030000003EB01139B681C0A147300F5D87303EBE0
:1030100001139B681C0C547300F5D87303EB011368
:103020009B681B0E937300F5D87303EB0113DB68E9
:10303000D37300F5D87303EB0113DB681C0A147417
:1030400000F5D87303EB0113DB681C0C547400F516
:10305000D87303EB0113DB681B0E937421B9C368AB
:1030600043F02003C36003E0036943F020030361DE
:1030700010BD21B9C26842F02002C26003E00269BB
:1030800042F02002026170470246002019B9D3685D
:1030900003F0030006E0012903D1136903F00300E4
:1030A00000E00020704710B502460B4600204FF6A6
:1030B000FF71BBB9146824F0020444F001041460E9
:1030C00000E0491E546804F00304012C01D00029DB
:1030D000F7D1546804F00304012C01D0002032E041
:1030E000012030E0012B13D1146824F00304146094
:1030F00000E0491E546804F003040CB10029F8D123
:10310000546804F003040CB100201CE001201AE014
:10311000022B17D1146824F0010444F00204146057
:1031200000E0491E546804F00304022C01D0002979
:10313000F7D1546804F00304022C01D0002002E00F
:10314000012000E0002010BD014600200A6822F0A6
:10315000010242F002020A604A6802F00302022AF7
:1031600000D10120704701464FF6FF7200200B6826
:1031700023F002030B6000E0521E4B6803F00203D1
:10318000022B01D1002AF7D14B6803F00203022B76
:1031900000D001207047014600208A6902F07000CB
:1031A0007047014600208A69100E704701460020D2
:1031B0008A69C2F3074070471AB143690B43436100
:1031C00002E043698B434361704710B5024600201B
:1031D00001F4700343B19369C1F3130423400BB1AD
:1031E00001202DE000202BE001F0807343B15368F3
:1031F000C1F3130423400BB1012021E000201FE0A4
:1032000001F0006343B19368C1F3130423400BB191
:10321000012015E0002013E001F0007343B1D368F2
:10322000C1F3130423400BB1012009E0002007E0A3
:103230001369C1F3130423400BB1012000E0002007
:1032400010BD0022244B994202D10023836111E07A
:10325000C1F3130201F000730BB1C2600AE001F088
:1032600080630BB1026105E001F000630BB1826085
:1032700000E0426070470246002002EA01030BB101
:10328000012000E00020704770B504460D4600267E
:1032900060692840002872D0B5F5807F69D01DDCB8
:1032A000082D42D006DC012D2DD0022D31D0042D69
:1032B0007FD134E0102D3ED0202D42D0402D78D14A
:1032C00045E00000030000040003000800000310B4
:1032D000000100080001FFF77000F030B5F5004F65
:1032E00061D009DCB5F5007F4AD0B5F5806F4DD0CF
:1032F000B5F5006F5DD150E0B5F5803F2DD0B5F547
:10330000003F56D12FE0A0685549FFF7B4FF0646AD
:1033100051E0E0680321FFF7AEFF06464BE0E068AE
:103320000821FFF7A8FF064645E0E0681021FFF7F7
:10333000A2FF06463FE020690321FFF79CFF0646F7
:1033400039E020690821FFF796FF064633E020693F
:103350001021FFF790FF06462DE060680821FFF777
:103360008AFF064627E060681021FFF784FF0646C3
:1033700021E0A0690121FFF77EFF06461BE01BE06C
:10338000A0690221FFF777FF064614E0A069042137
:10339000FFF771FF06460EE00BE0A0697021FFF712
:1033A0006AFF064607E060680421FFF764FF0646EF
:1033B00001E0002600BF00E00026304670BDB1F5F8
:1033C000007F3AD00FDC202928D006DC01291CD050
:1033D00004291DD0082940D11DE0402921D0B1F594
:1033E000807F3AD126E0B1F5004F31D006DCB1F54F
:1033F000806F25D0B1F5006F2FD124E0B1F5803F6B
:1034000012D0B1F5003F28D111E0154A826025E0C5
:103410000822C26022E01022C2601FE0082202617E
:103420001CE01022026119E00822426016E010221E
:10343000426013E00422426010E0042242600DE08A
:10344000042242600AE0002282610422426005E018
:10345000002282610422426000E000BF00BF70478A
:10346000010101000648804706480047FEE7FEE7E5
:10347000FEE7FEE7FEE7FEE7FEE7FEE7FEE7FEE724
:1034800067350008ED0000080CB5002001900090A1
:103490006C48006840F480306A49086000BF6948A1
:1034A000006800F4003000900198401C01900098E2
:1034B00018B90198B0F5A06FF1D16248006800F426
:1034C000003010B10120009001E000200090009831
:1034D000012843D15C48006840F010005A49086058
:1034E0000846006820F0030008600846006840F0C5
:1034F00002000860534840685249486008464068E6
:1035000048600846406840F480604860084640686B
:1035100020F47C1048600846406840F4E810486099
:103520000846006840F08070086000BF45480068A9
:1035300000F000700028F9D04248406820F00300F5
:10354000404948600846406840F00200486000BFBB
:103550003C48406800F00C000828F9D10CBD10B5BB
:10356000FFF792FF10BD10B53648006840F001002B
:103570003449086008464068344908403149486089
:1035800008460068324908402E490860084600682D
:1035900020F4802008600846406820F4FE0048605F
:1035A0004FF41F008860FFF7DAFF4FF000602949F1
:1035B000086010BD10B5002100200022214B5B687F
:1035C00003F00C0121B1042906D0082928D107E015
:1035D000214B224C236027E01F4B204C236023E02B
:1035E000184B5B6803F47010164B5B6803F4803271
:1035F000022303EB904022B9194B4343174C23603D
:103600000DE0104B5B6803F4003323B1144B4343CC
:10361000124C236003E0104B4343104C236003E043
:103620000D4B0E4C236000BF00BF064B5B68C3F31D
:1036300003130C4CE15C094B1B68CB40074C236027
:1036400010BD000000100240002002400000FFF802
:10365000FFFFF6FE08ED00E000127A007C0100207A
:1036600000093D00800100202DE9F05F05460020A3
:1036700092469B4688460646814640241BE02846E3
:1036800041464746224600F042F853465A46C01A81
:10369000914110D311461846224600F029F82D1A00
:1036A00067EB01084F4622460120002100F020F878
:1036B00017EB00094E41201EA4F10104DFDC48464F
:1036C00031462A464346BDE8F09F0000064C074DB0
:1036D00006E0E06840F0010394E8070098471034E2
:1036E000AC42F6D3FCF706FD0C3F00082C3F000867
:1036F000202A04DB203A00FA02F1002070479140B2
:10370000C2F1200320FA03F3194390407047202AA6
:1037100004DB203A21FA02F00021704721FA02F37B
:10372000D040C2F12002914008431946704770B55D
:103730008C1810F8015B15F0070301D110F8013B5C
:103740002A1106D110F8012B03E010F8016B01F8E3
:10375000016B5B1EF9D12B0705D40023521E0DD43B
:1037600001F8013BFAE710F8013BCB1A921C03E089
:1037700013F8015B01F8015B521EF9D5A142D8D3C1
:10378000002070BD0FB4054B10B503A9044A029880
:1037900000F018F810BC5DF814FB0000E10600080A
:1037A0002C00002002E008C8121F08C1002AFAD12C
:1037B00070477047002001E001C1121F002AFBD1B1
:1037C000704700002DE9FF4F8DB00F4605460026DB
:1037D00006E025280BD0DDE90F1290476D1C761C02
:1037E00028780028F5D111B03046BDE8F08F0024CC
:1037F000A246A1460122EC4900E0044315F8013F2E
:10380000203B02FA03F00842F7D128782A2810D08A
:103810006FF02F022878A0F13001092914D80AEBA3
:103820008A0102EB410144F0020400EB010A6D1C25
:10383000F0E701CF5FEA000A03D544F40054CAF16F
:10384000000A44F002046D1C28782E2817D115F8C0
:10385000010F44F004042A280ED06FF02F022878BC
:10386000A0F1300109290AD809EB890102EB4101D5
:1038700000EB01096D1CF2E757F8049B6D1C2878DA
:103880006C280FD006DC4C2817D068280DD06A2889
:1038900014D104E0742810D07A280FD10DE044F43C
:1038A00000140AE044F4801401E044F44014697800
:1038B000814202D104F580146D1C6D1C2A786E2A99
:1038C0001FD00CDC632A31D004DC002A8BD0582AAC
:1038D00011D1A3E0642A68D0692A0CD165E0732A6B
:1038E0002ED004DC6F2A73D0702A04D19BE0752A95
:1038F0006FD0782A6ED01046DDE90F129047761C03
:1039000050E1C4F30250022806D0032809D004284D
:1039100001CF09D0066045E101CFF117C0E9006190
:1039200040E101CF06803DE106703BE117F8040B52
:103930008DF8000000208DF80100EB46012003E027
:1039400057F804BB4FF0FF3061074FF0000102D47D
:103950000DE008F10101884649450FDA8045F8DBA2
:103960001BF808100029F4D108E008F1010188468D
:103970008142FADB1BF808100029F6D1DDE90F239C
:10398000AAEB08008146214600F036F9304400EBEE
:10399000080604E0DDE90F121BF8010B9047B8F1AF
:1039A0000108F7D221464846F7E00A21C4F3025342
:1039B0004FF0000B0891022B04D001CFC117032B4D
:1039C00009D00AE0FF1D27F00707F7E8020108E029
:1039D00032E01FE020E000B2C117042B01D140B259
:1039E000C117031E71F1000307DA4FF0000CD0EB92
:1039F0000C006CEB01012D2302E0230504D52B23E1
:103A00008DF82430012303E0E30701D02023F7E7FA
:103A1000984658E00A2110E010210EE010204FF0E7
:103A2000000B08900CE010214FF0000B44F0040450
:103A30004FF00809089103E008214FF0000B0891AE
:103A4000C4F30253022B04D001CF0021032B06D074
:103A500006E0FF1D27F00707F7E8020103E080B248
:103A6000042B00D1C0B24FF0000823072BD5702AD9
:103A700007D0DDF820C08CF0100C5CEA0B0C05D0F0
:103A80000EE040238DF82430012308E050EA0103C2
:103A900006D030238DF824308DF825200223984657
:103AA000DDF820C08CF0080C5CEA0B0C0BD150EA5E
:103AB000010301D1630706D530238DF824304FF080
:103AC0000108A9F10109582A04D038A20B9208AACA
:103AD0000A920BE03AA2F9E75B46089AFFF7C4FDA9
:103AE0000B9B9B5C0A9A521E0A92137050EA0102C9
:103AF000F2D10A98ADEB000000F1200B600702D56F
:103B000024F4803401E04FF00109D94502DDA9EB2E
:103B10000B0000E0002000EB0B0141440890AAEBF1
:103B2000010AE00306D4DDE90F232146504600F0E8
:103B300063F806444FF0000908E009A911F80900EC
:103B4000DDE90F12904709F10109761CC145F4DB4C
:103B5000E0030CD5DDE90F232146504600F04CF878
:103B6000064404E0DDE90F1230209047761C0899E6
:103B7000481E08900029F5DC08E00A980A990078A8
:103B8000491C0A91DDE90F129047761CBBF1000138
:103B9000ABF1010BF1DC21465046DDE90F2300F0CB
:103BA00019F806446D1C1BE6092801003031323338
:103BB0003435363738396162636465660000000069
:103BC0003031323334353637383941424344454653
:103BD000000000002DE9F041044600251E4617466E
:103BE000880404D405E039462020B0476D1C641ECB
:103BF000F9D52846BDE8F0812DE9F04104460025BD
:103C00001E469046C80301D5302700E020278804CF
:103C100004D505E041463846B0476D1C641EF9D511
:103C20002846BDE8F0810000211042206330844026
:103C3000A550C660E770088129914AA16BB18CC17B
:103C4000ADD1CEE1EFF13112100273325222B552F2
:103C50009442F772D662399318837BB35AA3BDD3CB
:103C60009CC3FFF3DEE36224433420040114E664C2
:103C7000C774A44485546AA54BB528850995EEE51B
:103C8000CFF5ACC58DD55336722611163006D776D2
:103C9000F6669556B4465BB77AA719973887DFF76B
:103CA000FEE79DD7BCC7C448E5588668A77840089A
:103CB000611802282338CCC9EDD98EE9AFF94889BB
:103CC00069990AA92BB9F55AD44AB77A966A711A32
:103CD000500A333A122AFDDBDCCBBFFB9EEB799B0B
:103CE000588B3BBB1AABA66C877CE44CC55C222C82
:103CF000033C600C411CAEED8FFDECCDCDDD2AAD5B
:103D00000BBD688D499D977EB66ED55EF44E133E11
:103D1000322E511E700E9FFFBEEFDDDFFCCF1BBFAA
:103D20003AAF599F788F8891A981CAB1EBA10CD184
:103D30002DC14EF16FE18010A100C230E32004508C
:103D4000254046706760B9839893FBA3DAB33DC3FF
:103D50001CD37FE35EF3B1029012F322D2323542DC
:103D6000145277625672EAB5CBA5A89589856EF58F
:103D70004FE52CD50DC5E234C324A014810466742C
:103D8000476424540544DBA7FAB79987B8975FE7DF
:103D90007EF71DC73CD7D326F2369106B01657667C
:103DA0007676154634564CD96DC90EF92FE9C89967
:103DB000E9898AB9ABA94458654806782768C018CC
:103DC000E1088238A3287DCB5CDB3FEB1EFBF98B3F
:103DD000D89BBBAB9ABB754A545A376A167AF10A1C
:103DE000D01AB32A923A2EFD0FED6CDD4DCDAABD4F
:103DF0008BADE89DC98D267C076C645C454CA23C6C
:103E0000832CE01CC10C1FEF3EFF5DCF7CDF9BAF1E
:103E1000BABFD98FF89F176E367E554E745E932EBB
:103E2000B23ED10EF01E00000D0A3D2020202020C1
:103E3000496E2D4170706C69636174696F6E2050BA
:103E4000726F6772616D6D696E67204170706C6929
:103E5000636174696F6E20202856657273696F6E96
:103E600020312E322E342920202020202020203DD9
:103E7000000000000D0A3D3D3D3D3D3D3D3D3D3DC9
:103E80003D3D3D3D3D3D3D3D3D3D3D3D3D3D3D3D62
:103E90003D3D3D3D3D3D3D3D3D3D3D3D3D3D3D3D52
:103EA0003D3D3D3D3D3D3D3D3D3D3D3D3D3D3D3D42
:103EB0003D3D3D3D3D3D3D3D3D3D3D3D0000000026
:103EC0002E2E2E616E6420612053797374656D20EF
:103ED00052657365742077696C6C20626520676534
:103EE0006E65726174656420746F2072652D6C6FED
:103EF000616420746865206E6577206F7074696FE7
:103F00006E2062797465730D0A0000002C3F000872
:103F100000000020900100002E37000870400008CB
:103F20009001002018080000B43700081112501248
:103F300008A204990B011D0011113F065B4F666D2D
:103F40007D077F6F777C395E797100FF005EBCE290
:103F5000613FDD83C29C7E20A3FD1F419DC3217F65
:103F6000FCA2401E5F01E3BD3E6082DC237D9FC159
:103F7000421CFEA0E1BF5D0380DE3C62BEE0025C4D
:103F8000DF81633D7C22C09E1D43A1FF4618FAA439
:103F900027799BC584DA3866E5BB5907DB85673925
:103FA000BAE406581947A5FB7826C49A653BD98719
:103FB000045AB8E6A7F91B45C6987A24F8A6441A0D
:103FC00099C7257B3A6486D85B05E7B98CD2306EF9
:103FD000EDB3510F4E10F2AC2F7193CD114FADF3E5
:103FE000702ECC92D38D6F31B2EC0E50AFF1134DD9
:103FF000CE90722C6D33D18F0C52B0EE326C8ED0CD
:10400000530DEFB1F0AE4C1291CF2D73CA947628B8
:10401000ABF517490856B4EA6937D58B5709EBB5A4
:1040200036688AD495CB2977F4AA4816E9B7550B98
:1040300088D6346A2B7597C94A14F6A8742AC8968C
:10404000154BA9F7B6E80A54D7896B2F35201712FC
:104050001AFF0155F129321D2D0102030404300914
:10406000060708090204060884A24A04691A000027
:04000005080000ED02
:00000001FF
